:060000000A128A110C280F
:10000800FE00030EF0000A08F1000A128A15322FCA
:100018000A128A110F280A128A155A260A128A11F8
:10002800C1000A128A155B260A128A11C2000A1236
:100038008A11FF270A128A11FB00B201B301B40129
:10004800B501B601B701B801B901BA01BB01BC01DC
:10005800BD01BE01BF01C00183010A128A119129A5
:1000680083120313AB00103027062804031D3D2814
:100078003E285E28BD01B601B701BC01BB01BE0127
:10008800FF30AB008030F60066300A128A150A2766
:100098000A128A11C030F600B3300A128A150A27EC
:1000A8000A128A11D030F60045300A128A150A273A
:1000B8000A128A112A30831203132B0603196528A2
:1000C8006628882823302B0603196B286C28882873
:1000D8002B0A03197028712888280130FF007F082F
:1000E800BD0704303D0203187A287B2808290A3006
:1000F800F2003B080A128A11EA270A128A118312AF
:1001080003132B07BB0008292A302B06031D8D2853
:100118008E289128BB01BD01082923302B06031D19
:100128009628972808290A128A1584260A128A11FD
:100138008030F60075300A128A150A270A128A11C9
:100148009030F60091300A128A150A270A128A118D
:100158008312031312151230C000F9289C30A60030
:100168000A30A0000030A1000A30F2000030F3008D
:100178004008A900AA012908F4002A08F5000A1273
:100188008A113D240A128A11730883120313A300EB
:100198007208A2000A128A11A4240A128A11831270
:1001A80003132008303E0A128A1595260A128A116E
:1001B8009D3083120313A6000A30A0000030A1006E
:1001C8004008A900AA012908A2002A08A3000A12C7
:1001D8008A11A4240A128A11831203132008303EBC
:1001E8000A128A1595260A128A11831203134008E7
:1001F800031DFF280029B2284008031D04290529EA
:100208000829BE01BE0A12110130B6070318B70A41
:100218000030B707103036063704031D1429152996
:100228008129B601B7013C0803191B291D29013092
:100238001E290030BC00C830A6006430F20000302F
:10024800F3003B08A900AA012908F4002A08F500D0
:100258000A128A113D240A128A117208303E0A12C3
:100268008A1595260A128A11C93083120313A6002B
:100278000A30A0000030A1000A30F2000030F3007C
:100288003B08A900AA012908F4002A08F5000A1267
:100298008A113D240A128A11730883120313A300DA
:1002A8007208A2000A128A11A4240A128A1183125F
:1002B80003132008303E0A128A1595260A128A115D
:1002C800CA3083120313A6000A30A0000030A10030
:1002D8003B08A900AA012908A2002A08A3000A12BB
:1002E8008A11A4240A128A11831203132008303EAB
:1002F8000A128A1595260A128A11831203133C08DA
:100308000319872988299029C830F6000E300A1267
:100318008A150A270A128A1108000A128A15A826BD
:100328000A128A1101300A128A15E7260A128A115E
:1003380083120313B100023041064204031DA529AC
:10034800A6290A2A3103031DAA29AB29D429033077
:10035800C1000030C2001030AF000030B0000A12F7
:100368008A1584260A128A11C030F60012300A1241
:100378008A150A270A128A114D3083120313AE0018
:100388001930AD004F30AC00AC0BC829AD0BC829F3
:10039800AE0BC8290A128A1584260A128A11BD2AA8
:1003A80002303106031DD929DA29E3290430C100B6
:1003B8000030C2001030AF000030B000CE2903304A
:1003C8003106031DE829E929F2290530C10000306A
:1003D800C2001030AF000030B000CE290430310622
:1003E800031DF729F829092A1E30C000BF01071587
:1003F80012150A128A1584260A128A1107308312E6
:100408000313C1000030C200BD2ABD2A07304106CF
:100418004204031D102A112A3E2A04303106031D06
:10042800162A172A282A40081E3EC0003C304002DF
:10043800031C1F2A202ABD2A0130FF007F08BF079E
:100448004008C43EC000BD2A05303106031D2D2AD0
:100458002E2A332A0930C1000030C200BD2A0630D6
:100468003106031D382A392A092A0A30C10000300A
:10047800C200CE29093041064204031D442A452AF8
:10048800092A04303106031D4A2A4B2ABD2A0715BA
:100498001215022A0A128A117F270A128A110230BB
:1004A80083120313C1000030C2000A128A15842681
:1004B8000A128A11DE2A0A128A15C6260A128A1117
:1004C800DE2A3008A8002F08A70031080A128A116E
:1004D800E8220A128A11DE2A3008A8002F08A7008D
:1004E80031080A128A11E8220A128A11DE2A3E0805
:1004F800031D7F2A802A9D2A3008A8002F08A700FC
:1005080031080A128A1134200A128A11831203133D
:100518003E03031D902A912ADE2A0A128A15842690
:100528000A128A11103083120313AF000030B00092
:1005380096293E03031DA12AA22ADE2A3008A80014
:100548002F08A70031080A128A11E8220A128A1114
:10055800DE2A0A128A11F1250A128A11DE2A0711E7
:100568001211DE2A071112110230C1000030C20038
:10057800DE2A831203134208003A0319C42ADE2A2A
:100588004108013A03194E2A033A03195F2A013A2E
:100598000319702A073A0319652A013A03197B2AB5
:1005A800023A0319AD2A0E3A0319B32A033A03197A
:1005B800B62ADE2A0F3083120313AF000030B000D2
:1005C80096290A128A110C2883120313AB001030E3
:1005D80027062804031DF12AF22A132BBA01C001A9
:1005E800BF01B901B401B501B801FF30AB008030DB
:1005F800F60034300A128A150A270A128A11C03006
:10060800F600E5300A128A150A270A128A11D03034
:10061800F60045300A128A150A270A128A112A306A
:10062800831203132B0603191A2B1B2B592B233068
:100638002B060319202B212B592B2B0A0319252BA9
:10064800262B592B0130FF007F08BA0703303A02E6
:1006580003182F2B302B3E2B0A30F20040080A12C9
:100668008A11EA270A128A11831203132B07C00082
:10067800B901832B03303A02031C432B442B832BF1
:1006880005303A020318492B4A2B832B0A30F20013
:100698003F080A128A11EA270A128A1183120313E1
:1006A8002B07BF00B901B90A832B2A302B06031D7B
:1006B8005E2B5F2B702B3908031D632B642B672B74
:1006C800C001BA01832B3903031D6B2B6C2B832BC1
:1006D800BF010230BA00832B23302B06031D752B74
:1006E800762B832B0A128A1584260A128A11073060
:1006F80083120313C1000030C20007151215013020
:10070800B4070318B50A0030B507103034063504AD
:10071800031D8F2B902B122CB401B5013808031937
:10072800962B982B0130992B0030B800C630A600C4
:100738000A30F2000030F3003F08A900AA01290896
:10074800F4002A08F5000A128A113D240A128A11B7
:100758007208303E0A128A1595260A128A11C73085
:1007680083120313A6000A30A0000030A1003F083E
:10077800A900AA012908A2002A08A3000A128A11BE
:10078800A4240A128A11831203132008303E0A1285
:100798008A1595260A128A11C83083120313A600F7
:1007A8003A300A128A1595260A128A11C93083121C
:1007B8000313A6000A30F2000030F3004008A90035
:1007C800AA012908F4002A08F5000A128A113D2412
:1007D8000A128A117208303E0A128A1595260A12E0
:1007E8008A11CA3083120313A6000A30A000003011
:1007F800A1004008A900AA012908A2002A08A3000C
:100808000A128A11A4240A128A11831203132008D7
:10081800303E0A128A1595260A128A11831203138A
:1008280038080319182C192C3C2C2C2CC930F6002C
:100838000F300A128A150A270A128A113C2CC63070
:10084800F6000F300A128A150A270A128A113C2C60
:100858003908A900AA012A08003A0319342C3C2CAB
:100868002908003A03191A2C013A0319232C3C2CA5
:100878000800F701F31F412C422C492CF209F30917
:10088800F20A0319F30AF701F70AF51F4C2C4D2C4D
:10089800562CF409F509F40A0319F50A0130FF008A
:1008A8007F08F706F801F9017208730403195D2C33
:1008B8005E2C952CF601F60A6C2C01300310F20D13
:1008C800F30DFF3E031D622C0130FF007F08F60781
:1008D800F31F6F2C702C612C01300310F80DF90DEB
:1008E800FF3E031D712C73087502031D7D2C7208D1
:1008F8007402031C802C812C882C7208F402730863
:10090800031CF503F502781401300310F30CF20C04
:10091800FF3E031D892C0130F602031D942C952CF3
:10092800702C77080319992C9A2C9F2CF809F9092F
:10093800F80A0319F90A7908F3007808F2000800A0
:1009480083120313A501A31FAA2CAB2CB22CA20956
:10095800A309A20A0319A30AA501A50AA11FB52C78
:10096800B62CBB2CA009A109A00A0319A10A2008CA
:1009780021040319C02CC12CF02CA401A40ACF2CEB
:1009880001300310A00DA10DFF3E031DC52C013041
:10099800FF007F08A407A11FD22CD32CC42C210848
:1009A8002302031DD92C20082202031CDC2CDD2C79
:1009B800E32C2008A2022108031CA303A302013090
:1009C8000310A10CA00CFF3E031DE42C0130A4026F
:1009D800031DEF2CF02CD32C25080319F42CF52C2F
:1009E800FA2CA209A309A20A0319A30A2308A10041
:0609F8002208A000080027
:100A000005308A000408840A820700342034203428
:100A100050346F3477346534723469346E346734EB
:100A200020344F344E3420342034203400342034E9
:100A300070346F3477346534723420343D3420346C
:100A400039343034303457342034203420340034B6
:100A500020344D346934633472346F347734613404
:100A60007634653420344F34763465346E34203433
:100A700000345334453454342034543449344D34E0
:100A80004534203428344D344D343A3453345334BF
:100A9000293400342A343A3443344C344534413414
:100AA00052342034203423343A3445344E345434D0
:100AB000453452340034203434342E3453347434B6
:100AC0006134723474342F34723465347334753451
:100AD0006D34653400342034533445345434203478
:100AE000543445344D34503428346F34433429342D
:100AF00020340034203420345034723465342D34A2
:100B0000483465346134743469346E346734203465
:100B1000003433342E3443346F346E3476346534D9
:100B20006334743469346F346E340034543469344B
:100B30006D3465342034523465346D342E343D3494
:100B4000203400342034543469346D346534203416
:100B5000553470342034213421340034203454345A
:100B600049344D34453420343D342034203400346D
:100B70002034543445344D34503420343D34203402
:100B80000034203435342E345034613475347334A9
:100B90006534003432342E344734723469346C3462
:100BA0006C34003431342E344D346934633472344F
:100BB0006F340034203436342E34533474346F346C
:100BC0007034003434342E34533474346134723419
:100BD00074340034543449344D3445342D34203485
:100BE00000348030F600A9300A128A150A270A124A
:100BF0008A11893083120313A6000A30F2000030F4
:100C0000F3003F08A700A8012708F4002808F50012
:100C10000A128A113D240A128A117208303E0A1201
:100C20008A1595260A128A118A3083120313A600A8
:100C30000A30A0000030A1003F08A700A801270843
:100C4000A2002808A3000A128A11A4240A128A11F9
:100C5000831203132008303E0A128A1595260A12C1
:100C60008A118B3083120313A6003A300A128A15B8
:100C700095260A128A118C3083120313A6000A30BB
:100C8000F2000030F3004008A700A8012708F40094
:100C90002808F5000A128A113D240A128A117208E6
:100CA000303E0A128A1595260A128A118D30831257
:100CB0000313A6000A30A0000030A1004008A700DE
:100CC000A8012708A2002808A3000A128A11A42458
:100CD0000A128A11831203132008303E0A128A1561
:100CE00095260A128A11C030F60056300A128A156B
:100CF0000A270A128A119030F600BC300A128A15AF
:100D00000A270A128A11D030F600D5300A128A1545
:100D10000A270A128A11831203134008031D912E19
:100D2000922EC32E3F08031D962E972EC32E0A1215
:100D30008A1584260A128A11C030F6009D300A12E4
:100D40008A150A270A128A118312031387144D3059
:100D500083120313A9001930A8004F30A700A70B76
:100D6000AF2EA80BAF2EA90BAF2E0A128A15842620
:100D70000A128A118312031387100711121102300D
:100D8000C1000030C2000800831203138811081547
:100D9000881408146430F2000030F300FF30F207CA
:100DA0000318F30AFF30F307720A031DDB2E730AE0
:100DB000031DDB2EDC2ECE2E831203130618E12E2C
:100DC000E22EE42E01307E2F8618E72EE82EEA2E42
:100DD00002307E2F0619ED2EEE2EF02E03307E2FE0
:100DE00088150811881408146430F2000030F300EC
:100DF000FF30F2070318F30AFF30F3077308803A55
:100E0000FF0080307F02031D072F0130720203189C
:100E10000A2F0B2FF82E831203130618102F112FF1
:100E2000132F04307E2F8618162F172F192F0530F9
:100E30007E2F06191C2F1D2F1F2F06307E2F881581
:100E40000815881008146430F2000030F300FF30F9
:100E5000F2070318F30AFF30F3077308803AFF0024
:100E600080307F02031D362F013072020318392FA4
:100E70003A2F272F8312031306183F2F402F422F9C
:100E800007307E2F8618452F462F482F08307E2F9B
:100E900006194B2F4C2F4E2F09307E2F8815081521
:100EA000881408106430F2000030F300FF30F207BD
:100EB0000318F30AFF30F3077308803AFF0080300D
:100EC0007F02031D652F013072020318682F692FFE
:100ED000562F8312031306186E2F6F2F712F2A308F
:100EE0007E2F8618742F752F772F00307E2F0619CE
:100EF0007A2F7B2F7D2F23307E2FFF300800831227
:100F00000313AA012A08803EA600FF300A128A15A0
:100F100095260A128A11033083120313A9008A301E
:100F2000A8005530A700A70B932FA80B932FA90B50
:100F3000932F0130FF007F0883120313AA0710309C
:100F40002A02031CA42FA52F822FC030F6000130E7
:100F50000A128A150A270A128A119030F6002330E5
:100F60000A128A150A270A128A1183120313AA0188
:100F70002A08D03EA600FF300A128A1595260A12CA
:100F80008A11033083120313A9008A30A800553058
:100F9000A700A70BC92FA80BC92FA90BC92F013078
:100FA000FF007F0883120313AA0710302A02031CD4
:100FB000DA2FDB2FB82F4D3083120313A90019301D
:100FC000A8004F30A700A70BE32FA80BE32FA90B16
:100FD000E32F0800F400F301741CEF2FF02FF42F1F
:100FE0007208FF007F08F3070310F20D0310F40CE2
:100FF0007408031DFC2FFD2FEC2F7308080001342B
:101CB40001340034831603138801091189100A12B0
:101CC4008A159D270A128A15080083120313121419
:101CD4009214FA308316031392008C1483120313A4
:101CE4001211080083160313060807388600080833
:101CF400F03988008113831203138815081588149A
:101D040008140800F20101300A128A1567270A1222
:101D14008A150430F7003D30F600F60B8F2EF70BD2
:101D24008F2E942E0800FA00F20183120313260862
:101D34000A128A1567270A128A15F201F20A7A082A
:101D44000A128A1567270A128A1508000A128A15C8
:101D54005C260A128A150A128A1574260A128A1532
:101D64008316031307118312031307118316031336
:101D740087108312031387100A128A1567260A1222
:101D84008A150B178B1708008030F600CD300A1225
:101D94008A150A270A128A15C030F600C5300A12BD
:101DA4008A150A270A128A159030F60084300A121E
:101DB4008A150A270A128A15D030F600DD300A1275
:101DC4008A150A270A128A150800F4000A128A11D1
:101DD400C4260A128A15F5007408031DF22EF32E88
:101DE400F52E7508092F750A0319F92EFA2E012FFD
:101DF4007B080319FE2EFF2E012FFB01F32E750A1B
:101E0400031D052F062F082FFB01FB0AFF300800D6
:101E1400F700F20176080A128A1567270A128A1552
:101E2400252FF201F20A770884000A128A1100258C
:101E34000A128A150A128A1567270A128A150130AE
:101E4400FF007F08F707770884000A128A1100252B
:101E54000A128A15003A031D302F312F132F080060
:101E6400831203138C1C372F382F602F0130B207D5
:101E74000318B30A0030B307E23032060430031902
:101E84003306031D462F472F5F2FB201B3014008CD
:101E940003194D2F4E2F512F0130C0025F2F4008E0
:101EA400031D552F562F5F2F3F0803195A2F5B2F01
:101EB4005F2F0130BF023B30C0008C1071088A00D4
:101EC400700E8300FE0E7E0E0900F50072186B2F53
:101ED4006F2F831203130915722F83120313091131
:101EE4007508F03988008914A630F300F30B782FB5
:101EF400000083120313891075080F39F3000330AF
:101F04000310F30DFF3E031D822F0310730D880091
:101F14008914A630F300F30B8D2F000083120313F2
:101F240089101B30F4009E30F300F30B972FF40B51
:101F3400972F00000800C330F700CD30F600F60BF1
:101F4400A12FF70BA12FF20133300A128A1567274C
:101F54000A128A151B30F7009E30F600F60BB02FDC
:101F6400F70BB02F0000F20133300A128A156727ED
:101F74000A128A15A630F600F60BBE2F0000F201F5
:101F840033300A128A1567270A128A15C92FCA2FF5
:101F94000000F20102300A128A1567270A128A1514
:101FA400A630F600F60BD42F0000F20128300A12F6
:101FB4008A1567270A128A15A630F600F60BE02F59
:101FC4000000F20101300A128A1567270A128A15E5
:101FD4000430F7003D30F600F60BEE2FF70BEE2F32
:101FE400F32FF2010C300A128A1567270A128A1598
:0C1FF400A630F600F60BFC2F00000800E1
:02400E00FB3F76
:00000001FF
